{
  "_format": "hh-sol-artifact-1",
  "contractName": "CounterV2",
  "sourceName": "contracts/CounterV2.sol",
  "abi": [
    {
      "anonymous": false,
      "inputs": [
        {
          "indexed": false,
          "internalType": "uint8",
          "name": "version",
          "type": "uint8"
        }
      ],
      "name": "Initialized",
      "type": "event"
    },
    {
      "inputs": [],
      "name": "counter",
      "outputs": [
        {
          "internalType": "uint8",
          "name": "",
          "type": "uint8"
        }
      ],
      "stateMutability": "view",
      "type": "function"
    },
    {
      "inputs": [],
      "name": "decrement",
      "outputs": [],
      "stateMutability": "nonpayable",
      "type": "function"
    },
    {
      "inputs": [],
      "name": "increment",
      "outputs": [],
      "stateMutability": "nonpayable",
      "type": "function"
    },
    {
      "inputs": [
        {
          "internalType": "uint8",
          "name": "_start",
          "type": "uint8"
        }
      ],
      "name": "initialize",
      "outputs": [],
      "stateMutability": "nonpayable",
      "type": "function"
    }
  ],
  "bytecode": "0x608060405234801561001057600080fd5b50610500806100206000396000f3fe608060405234801561001057600080fd5b506004361061004c5760003560e01c80632baeceb7146100515780634351e6b61461005b57806361bc221a14610077578063d09de08a14610095575b600080fd5b61005961009f565b005b610075600480360381019061007091906102d7565b6100d8565b005b61007f61022a565b60405161008c9190610313565b60405180910390f35b61009d61023d565b005b6001600060028282829054906101000a900460ff166100be919061035d565b92506101000a81548160ff021916908360ff160217905550565b60008060019054906101000a900460ff161590508080156101095750600160008054906101000a900460ff1660ff16105b80610136575061011830610276565b1580156101355750600160008054906101000a900460ff1660ff16145b5b610175576040517f08c379a000000000000000000000000000000000000000000000000000000000815260040161016c90610415565b60405180910390fd5b60016000806101000a81548160ff021916908360ff16021790555080156101b2576001600060016101000a81548160ff0219169083151502179055505b81600060026101000a81548160ff021916908360ff16021790555080156102265760008060016101000a81548160ff0219169083151502179055507f7f26b83ff96e1f2b6a682f133852f6798a09c465da95921460cefb3847402498600160405161021d919061047a565b60405180910390a15b5050565b600060029054906101000a900460ff1681565b6001600060028282829054906101000a900460ff1661025c9190610495565b92506101000a81548160ff021916908360ff160217905550565b6000808273ffffffffffffffffffffffffffffffffffffffff163b119050919050565b600080fd5b600060ff82169050919050565b6102b48161029e565b81146102bf57600080fd5b50565b6000813590506102d1816102ab565b92915050565b6000602082840312156102ed576102ec610299565b5b60006102fb848285016102c2565b91505092915050565b61030d8161029e565b82525050565b60006020820190506103286000830184610304565b92915050565b7f4e487b7100000000000000000000000000000000000000000000000000000000600052601160045260246000fd5b60006103688261029e565b91506103738361029e565b9250828203905060ff81111561038c5761038b61032e565b5b92915050565b600082825260208201905092915050565b7f496e697469616c697a61626c653a20636f6e747261637420697320616c72656160008201527f647920696e697469616c697a6564000000000000000000000000000000000000602082015250565b60006103ff602e83610392565b915061040a826103a3565b604082019050919050565b6000602082019050818103600083015261042e816103f2565b9050919050565b6000819050919050565b6000819050919050565b600061046461045f61045a84610435565b61043f565b61029e565b9050919050565b61047481610449565b82525050565b600060208201905061048f600083018461046b565b92915050565b60006104a08261029e565b91506104ab8361029e565b9250828201905060ff8111156104c4576104c361032e565b5b9291505056fea26469706673582212201ad65f5268abf32d97810cb352cc2a098e0bac81c2b859730d1a2b74147434f164736f6c63430008110033",
  "linkReferences": {},
  "deployedLinkReferences": {}
}