{
  "_format": "hh-sol-artifact-1",
  "contractName": "Counter",
  "sourceName": "contracts/Counter.sol",
  "abi": [
    {
      "anonymous": false,
      "inputs": [
        {
          "indexed": false,
          "internalType": "uint8",
          "name": "version",
          "type": "uint8"
        }
      ],
      "name": "Initialized",
      "type": "event"
    },
    {
      "inputs": [],
      "name": "counter",
      "outputs": [
        {
          "internalType": "uint8",
          "name": "",
          "type": "uint8"
        }
      ],
      "stateMutability": "view",
      "type": "function"
    },
    {
      "inputs": [],
      "name": "increment",
      "outputs": [],
      "stateMutability": "nonpayable",
      "type": "function"
    },
    {
      "inputs": [
        {
          "internalType": "uint8",
          "name": "_start",
          "type": "uint8"
        }
      ],
      "name": "initialize",
      "outputs": [],
      "stateMutability": "nonpayable",
      "type": "function"
    }
  ],
  "bytecode": "0x608060405234801561001057600080fd5b5061047d806100206000396000f3fe608060405234801561001057600080fd5b50600436106100415760003560e01c80634351e6b61461004657806361bc221a14610062578063d09de08a14610080575b600080fd5b610060600480360381019061005b9190610289565b61008a565b005b61006a6101dc565b60405161007791906102c5565b60405180910390f35b6100886101ef565b005b60008060019054906101000a900460ff161590508080156100bb5750600160008054906101000a900460ff1660ff16105b806100e857506100ca30610228565b1580156100e75750600160008054906101000a900460ff1660ff16145b5b610127576040517f08c379a000000000000000000000000000000000000000000000000000000000815260040161011e90610363565b60405180910390fd5b60016000806101000a81548160ff021916908360ff1602179055508015610164576001600060016101000a81548160ff0219169083151502179055505b81600060026101000a81548160ff021916908360ff16021790555080156101d85760008060016101000a81548160ff0219169083151502179055507f7f26b83ff96e1f2b6a682f133852f6798a09c465da95921460cefb384740249860016040516101cf91906103c8565b60405180910390a15b5050565b600060029054906101000a900460ff1681565b6001600060028282829054906101000a900460ff1661020e9190610412565b92506101000a81548160ff021916908360ff160217905550565b6000808273ffffffffffffffffffffffffffffffffffffffff163b119050919050565b600080fd5b600060ff82169050919050565b61026681610250565b811461027157600080fd5b50565b6000813590506102838161025d565b92915050565b60006020828403121561029f5761029e61024b565b5b60006102ad84828501610274565b91505092915050565b6102bf81610250565b82525050565b60006020820190506102da60008301846102b6565b92915050565b600082825260208201905092915050565b7f496e697469616c697a61626c653a20636f6e747261637420697320616c72656160008201527f647920696e697469616c697a6564000000000000000000000000000000000000602082015250565b600061034d602e836102e0565b9150610358826102f1565b604082019050919050565b6000602082019050818103600083015261037c81610340565b9050919050565b6000819050919050565b6000819050919050565b60006103b26103ad6103a884610383565b61038d565b610250565b9050919050565b6103c281610397565b82525050565b60006020820190506103dd60008301846103b9565b92915050565b7f4e487b7100000000000000000000000000000000000000000000000000000000600052601160045260246000fd5b600061041d82610250565b915061042883610250565b9250828201905060ff811115610441576104406103e3565b5b9291505056fea2646970667358221220f4f9d6ac81311ff9acea33f96b3c7797e50e25e2bb619ee3dafd6adc8f04f47964736f6c63430008110033",
  "linkReferences": {},
  "deployedLinkReferences": {}
}